:020000040800F2
:100000000000022015C400083DC300083FC30008DB
:1000100041C3000843C3000845C3000800000000B6
:10002000000000000000000000000000811F000828
:1000300047C30008000000001120000875200008D8
:1000400065C4000865C4000865C4000865C40008EC
:1000500065C4000865C4000849C3000865C40008F9
:1000600065C4000865C4000865C4000865C40008CC
:1000700065C4000865C4000865C4000865C40008BC
:1000800065C4000865C4000865C4000865C40008AC
:1000900065C4000865C4000865C4000865C400089C
:1000A00065C4000865C4000865C4000865C400088C
:1000B00051C300085DC3000869C3000865C4000897
:1000C00065C4000865C4000865C4000865C400086C
:1000D00065C4000865C4000865C4000865C400085C
:1000E00065C4000865C4000865C4000865C400084C
:1000F00065C4000865C4000865C4000865C400083C
:1001000065C4000865C4000865C4000865C400082B
:1001100065C4000865C4000865C4000865C400081B
:1001200065C4000865C4000865C4000865C400080B
:1001300065C4000865C4000865C4000865C40008FB
:1001400065C4000865C4000865C4000865C40008EB
:1001500065C4000865C4000865C4000865C40008DB
:1001600065C4000865C4000865C4000865C40008CB
:1001700065C4000865C4000865C4000800000000EC
:0801800065C4000865C4000815
:1001900010B5054C237833B9044B13B10448AFF3C1
:1001A00000800123237010BD7C00002000000000AF
:1001B000F4D6000808B5034B1BB103490348AFF35D
:1001C000008008BD0000000080000020F4D6000878
:1001D00010F8012B11F8013B012A28BF9A42F7D0F1
:1001E000D01A7047034613F8012B002AFBD1181AC6
:1001F000013870470000000000000000000000000F
:1002000001F0FF01102A2BDB10F0070F08D010F8C7
:10021000013B013A8B422DD010F0070F42B3F6D1CB
:10022000F0B441EA012141EA014122F007047FF0E4
:1002300000070023F0E80256083C85EA010586EA3B
:10024000010685FA47F5A3FA87F586FA47F6A5FA77
:1002500087F68EB9EED1F0BC01F0FF0102F0070283
:1002600032B110F8013B013A83EA010313B1F8D12E
:100270000020704701387047002D06BF354603380F
:10028000073815F0010F07D1013015F4807F02BF48
:10029000013015F4C03F0130F0BC0138704700BF99
:1002A00053B94AB9002908BF00281CBF4FF0FF31DD
:1002B0004FF0FF3000F07AB9ADF1080C6DE904CED3
:1002C00000F006F8DDF804E0DDE9022304B0704731
:1002D0002DE9F0478C460D460446089E002B51D16F
:1002E0008A4217466DD9B2FA82FEBEF1000F0BD0DA
:1002F000CEF1200C01FA0EF520FA0CFC02FA0EF7F2
:100300004CEA050C00FA0EF44FEA174A250CBCFB28
:10031000FAF81FFA87F90AFB18CC45EA0C4508FBE6
:1003200009F3AB420AD9ED1908F1FF3280F02381BD
:10033000AB4240F22081A8F102083D44ED1AA4B27C
:10034000B5FBFAF00AFB105544EA054400FB09F935
:10035000A14509D9E41900F1FF3380F00A81A145D4
:1003600040F2078102383C44A4EB090440EA08400B
:100370000021002E61D024FA0EF400233460736053
:10038000BDE8F0878B4207D9002E54D0002186E8C3
:1003900021000846BDE8F087B3FA83F1002940F058
:1003A0008E80AB4202D3824200F2FA80841A65EB5F
:1003B00003050120AC46002E3FD086E81010BDE8B2
:1003C000F08712B90127B7FBF2F7B7FA87FEBEF143
:1003D000000F34D1EB1B3A0C1FFA87FC0121B3FB51
:1003E000F2F8250C02FB183345EA03450CFB08F331
:1003F000AB4207D9ED1908F1FF3002D2AB4200F24F
:10040000D1808046ED1AA3B2B5FBF2F002FB105585
:1004100043EA05440CFB00FCA44507D9E41900F1AC
:10042000FF3302D2A44500F2B8801846A4EB0C04B6
:1004300040EA08409DE731463046BDE8F087CEF1FE
:10044000200405FA0EF307FA0EF720FA04F83A0C26
:1004500025FA04F448EA0308B4FBF2F14FEA184520
:1004600002FB11441FFA87FC45EA044501FB0CF32B
:10047000AB4200FA0EF409D9ED1901F1FF3080F01A
:100480008A80AB4240F2878002393D44EB1A1FFA62
:1004900088F5B3FBF2F002FB103345EA034500FB9D
:1004A0000CF3AB4207D9ED1900F1FF386FD2AB4224
:1004B0006DD902383D44EB1A40EA01418FE7C1F1A2
:1004C000200722FA07F88B4005FA01F448EA0303F3
:1004D00020FA07FE4FEA134CFD404EEA040EB5FB2E
:1004E000FCF94FEA1E440CFB19551FFA83F844EA45
:1004F000054509FB08F4AC4202FA01F200FA01FAE0
:1005000008D9ED1809F1FF3043D2AC4241D9A9F125
:1005100002091D442D1B1FFA8EFEB5FBFCF00CFBDF
:1005200010554EEA054400FB08F8A04507D9E41829
:1005300000F1FF3529D2A04527D902381C4440EAF2
:100540000940A4EB0804A0FB02894C45C6464D4671
:1005500015D312D056B1BAEB0E0364EB050404FABE
:1005600007F7CB401F43CC40376074600021BDE8E3
:10057000F0871846F8E69046E0E6C245EAD2B8EBC6
:10058000020E69EB03050138E4E72846D7E7404649
:1005900091E78146BEE7014678E702383C4445E7EB
:1005A000084608E7A8F102083D442BE7704700BF62
:1005B00008B50B4B1A6842F400721A601A6842F4CC
:1005C00080621A601A6842F480721A60032000F098
:1005D0002FF800200BF076FE0BF078FD002008BD10
:1005E000003C0240034A044B11681B780B44136023
:1005F000704700BFF8F5002000000020014B18688C
:10060000704700BFF8F5002038B50446FFF7F6FF45
:10061000631C1CBF054B1B78054618BFE418FFF789
:10062000EDFF401B8442FAD838BD00BF0000002017
:10063000074AD36823F4E0631B041B0C43F0BF6339
:10064000000243F4003300F4E0600343D3607047DA
:1006500000ED00E0174B30B5DC68C4F30224C4F1B0
:100660000703251D042B28BF0423062D4FF0010589
:1006700005FA03F303F1FF338CBF033C0024194058
:10068000A14005FA04F4013C2240002842EA01029C
:100690004FEA0212ADBF00F1604000F00F00064BC0
:1006A00000F56140B5BFD2B2D2B21A5480F800232F
:1006B00030BD00BF00ED00E014ED00E0002808DBD5
:1006C0004209012300F01F0003FA00F0014B43F838
:1006D0002200704700E100E000280DDB4309012201
:1006E00000F01F0002FA00F02033044A42F8230011
:1006F000BFF34F8FBFF36F8F704700BF00E100E083
:100700002DE9F04F85B00B68DFF8AC81684ADFF85F
:10071000AC91019300230124019D9C402540AC42F3
:1007200040F0B0804C6824F0100C0CF1FF36012E24
:100730004FEA430E12D88768032606FA0EF627EA18
:100740000607CE6806FA0EF63E4386604768C4F395
:10075000001627EA05079E403E4346600326C76809
:1007600006FA0EF6F64307EA060A8F6807FA0EF74E
:1007700047EA0A07BCF1020FC76016D14FEAD30A55
:1007800000EB8A0A03F0070BDAF820704FEA8B0BB4
:100790004FF00F0C0CFA0BFC27EA0C0C0F6907FA50
:1007A0000BF747EA0C07CAF8207007683E4004F0D0
:1007B000030707FA0EFE4EEA06060660E60061D55C
:1007C0004FF0000BCDF80CB0D8F84470394E47F418
:1007D0008047C8F84470D8F8447007F480470397FE
:1007E000039F23F0030707F1804707F59C3703F0C9
:1007F000030CD7F808A04FEA8C0C4FF00F0E0EFA3E
:100800000CFEB0422AEA0E0E43D006F58066B042D6
:1008100041D006F58066B0423FD006F58066B04212
:100820003DD006F58066B0423BD048453BD006F54A
:100830000066B04239D006F58066B04214BF082683
:10084000072606FA0CF646EA0E06BE601668EF4367
:1008500014F4803F0CBF3E402E431660566814F4DB
:10086000003F0CBF3E402E435660966814F4801F34
:100870000CBF3E402E439660D668A40254BF3E4053
:100880002E43D6600133102B7FF445AF05B0BDE891
:10089000F08F5E46D5E70126D3E70226D1E703268F
:1008A000CFE70426CDE70526CBE70626C9E700BF3C
:1008B000003C0140000002400038024000140240A9
:1008C0000369194214BF0120002070470AB18161F9
:1008D00070470904FBE7000008B5044B5969014261
:1008E00002D058610BF014FB08BD00BF003C014072
:1008F00070B5044608B9012070BD90F83D3003F092
:10090000FF021BB980F83C200BF002FC242384F882
:100910003D3023681A6822F001021A601A6842F416
:1009200000421A601A6822F400421A6000F0FCFAD1
:100930006568414B9D424DD8404B9842DBD92268B7
:100940003F495368B0FBF1F123F03F030B43536081
:10095000136A23F03F03013119431162D169364B09
:1009600021F44F419D4221F0FF0100F1FF3048D8B2
:100970006D00B0FBF5F00130C0F30B03042B38BF62
:1009800004230B43D3611168206AE36921F0C0019D
:1009900003430B4313609168E068236921F403412A
:1009A000034321F0FF010B439360D168A0696369A1
:1009B00021F0FF0103430B43D360136843F00103AD
:1009C000136000202023206484F83D30206384F8E5
:1009D0003E0070BD1B4B98428DD92268184E53685B
:1009E000B0FBF6F623F03F0333435360136A4FF432
:1009F0009671714323F03F034FF47A76B1FBF6F121
:100A0000A9E7A36853B905EB4503B0FBF3F0431C1A
:100A1000C3F30B036BB143F40043B2E719236B43F9
:100A2000B0FBF3F0431CC3F30B0313B143F4404397
:100A3000A7E70123A5E700BFA08601007F841E0071
:100A400040420F00FF083D002DE9F341044608B97C
:100A500001203FE00368DD0710D4236898075AD4CB
:100A600023681A0700F19C8023685B0700F1BA80B5
:100A7000A069002840F01B8100202BE0A44B9A685D
:100A800002F00C02042A07D09A6802F00C02082A2D
:100A90000AD15B68590207D59D4B1B689A03DCD5C8
:100AA0006368002BD9D1D3E76368994DB3F5803FD4
:100AB00013D12B6843F480332B60FFF79FFD944DD7
:100AC00006462B689B03C8D4FFF798FD801B64285B
:100AD000F7D9032002B0BDE8F081B3F5A02F04D10F
:100AE0002B6843F480232B60E3E72A6822F48032EA
:100AF0002A602A6822F480222A60002BDDD1FFF7C9
:100B00007DFD06462B689F03A7D5FFF777FD801B69
:100B10006428F7D9DDE77E4B9A6812F00C0F07D0F6
:100B20009A6802F00C02082A11D15B685E020ED4AA
:100B3000774B1A68950702D5E268012A88D11A68AE
:100B4000216922F0F80242EAC1021A6088E7E268ED
:100B5000704BB2B101221A60FFF750FD6C4D064692
:100B60002B68980707D52B68226923F0F80343EA1E
:100B7000C2032B6074E7FFF741FD801B0228EFD909
:100B8000A7E71A60FFF73AFD614D06462B68990703
:100B90007FF566AFFFF732FD801B0228F6D998E794
:100BA00062695D4B7AB101221A60FFF727FD584D4B
:100BB00006466B6F9F073FF557AFFFF71FFD801B82
:100BC0000228F6D985E71A60FFF718FD504D064652
:100BD0006B6F98077FF548AFFFF710FD801B022869
:100BE000F6D976E74A4B1A6C12F0805228D101925E
:100BF0001A6C42F080521A641B6C03F0805301930C
:100C0000019B0126454D2B68D9051BD5A368404D96
:100C1000012B27D12B6F43F001032B67FFF7EEFC6D
:100C20003B4D074641F288382B6F9B0739D5002E84
:100C30003FF41EAF364A136C23F08053136417E75A
:100C40000026DFE72B6843F480732B60FFF7D6FCA8
:100C500007462B68DA05D9D4FFF7D0FCC01B022861
:100C6000F7D936E7052B04D12B6F43F004032B672C
:100C7000D0E72A6F22F001022A672A6F22F00402CD
:100C80002A67002BCAD1FFF7B9FC41F28838074622
:100C90002B6F9807CBD5FFF7B1FCC01B4045F7D9A8
:100CA00017E7FFF7ABFCC01B4045BDD911E7184D56
:100CB000AB6803F00C03082B47D0194E0023022821
:100CC000336035D1FFF79AFC07462B68990129D488
:100CD000226AE3691343626A43EA8213E26A43EADF
:100CE0000263A26A0A4C5208013A43EA02436B606B
:100CF00001233360FFF782FC054623689A013FF524
:100D0000BBAEFFF77BFC401B0228F6D9E1E600BF33
:100D10000038024000004742800E47420070004009
:100D200060004742FFF76AFCC01B0228CDD9D0E61D
:100D3000FFF764FC04462B689B017FF59DAEFFF72F
:100D40005DFC001B0228F6D9C3E601283FF4C2AEC1
:100D5000A868E36900F480029A427FF479AE226ABF
:100D600000F03F0393427FF473AE626A47F6C073AC
:100D7000034093427FF46CAEA26A00F44033934286
:100D80007FF466AEE36A00F07060C01A18BF0120FD
:100D9000A0E600BF134908B58B6803F00C03042BD1
:100DA00003D0082B03D0104808BD104808BD4A687E
:100DB0004B68496813F4800314BF0C480A48C1F318
:100DC000881118BF002302F03F02A1FB0001FFF7CA
:100DD00067FA044B5B68C3F3014301335B00B0FB6C
:100DE000F3F008BD003802400024F40000127A003D
:100DF0002DE9F0410D46044610B90120BDE8F0810F
:100E0000444B1A6802F00F028A4229D321688F07E7
:100E10002ED4C80741D43F4B1A6802F00F02954206
:100E200067D3226851076DD4130707D53A4A216961
:100E3000936823F4604343EAC1039360FFF7AAFF7A
:100E4000354B364A9B68C3F30313D35CD840344B0D
:100E50001860344B18680BF035FA0020BDE8F081BB
:100E6000CAB21A701B6803F00F039942C5D1CDE7CF
:100E7000294B11F0040F1EBF9A6842F4E0529A60A9
:100E80000E0742BF9A6842F460429A609A68A0686E
:100E900022F0F00202439A60BBE762681E4B012A0F
:100EA0001DD11B6813F4003FA7D01B4EB36823F07D
:100EB00003031343B360FFF7A1FB41F288380746F1
:100EC000B368626803F00C03B3EB820FA3D0FFF7A3
:100ED00095FBC01B4045F3D90320BDE8F081911E6E
:100EE00001291B6802D813F0007FDDE713F0020F21
:100EF000DAE7EAB21A701B6803F00F039D427FF431
:100F00007CAF8EE70449E0688B6823F4E053034329
:100F10008B6089E7003C0240003802401CFB00085F
:100F20001400002004000020044B054A9B68C3F312
:100F30008223D35C034A1068D840704700380240CF
:100F40002CFB000814000020044B054A9B68C3F3E7
:100F50004233D35C034A1068D840704700380240DF
:100F60002CFB0008140000200F2303600B4B9A6831
:100F700002F0030242609A6802F0F00282609A680E
:100F800002F4E052C2609B68DB0803F4E0530361A3
:100F9000034B1B6803F00F030B60704700380240DF
:100FA000003C0240F8B504460E4615461F4621682F
:100FB0008A6836EA020301D00020F8BD6B1CF7D026
:100FC000FFF71CFBC01B8542F1D823685A6822F04A
:100FD000E0025A606268B2F5827F0AD1A268B2F577
:100FE000004F02D0B2F5806F03D11A6822F04002A0
:100FF0001A60A26AB2F5005F07D11A6822F40052A3
:101000001A601A6842F400521A60012384F85130C1
:10101000002384F850300320F8BD38B513464268E9
:10102000B2F5827F04461FD18268B2F5004F02D02C
:10103000B2F5806F07D125682868B2F5806F20F07F
:101040004000286007D00A4680212046FFF7AAFF0B
:1010500020B9002038BD0A460121F6E7636D43F050
:1010600020036365032038BD0A460121EEE7000036
:1010700073B51346134A144E15684268B5FBF6F66D
:101080004FF47A757543B2F5827F044601950DD110
:101090000A468021FFF786FF10B9002002B070BD1C
:1010A000636D43F0200363650320F7E7019B002B8A
:1010B000F3D0019B013B019323689B681B06F5D489
:1010C000EBE700BF1400002000366E0110B50446A7
:1010D000002836D00023836290F8513003F0FF02DD
:1010E0001BB980F850200BF04BF82168A068A2696A
:1010F000022384F851300B6823F040030B606368CF
:101100000343E06803432069034360690343E069E4
:101110000343206A0343A06A034302F400700343BD
:101120000B60120C636A02F004021A434A60CB6936
:1011300023F40063CB6100200123606584F8513003
:1011400010BD012010BD2DE9F3411E4690F850302E
:10115000012B04460D46904600F09B80012380F849
:101160005030FFF74BFA074694F85100C0B20128FF
:1011700040F08D80002D5DD0B8F1000F5AD00323D0
:1011800084F851300020A3686065A063A4F836801D
:10119000A087E0876064206420682563B3F5004F72
:1011A00008BF0368A4F8348004BF43F4804303609D
:1011B00003685B065EBF036843F040030360E368B7
:1011C000B3F5006F63683ED113B1B8F1010F07D1D9
:1011D00035F8023BC3602563E38E013B9BB2E38697
:1011E000E38E9BB2A3B93A4631462046FFF740FF53
:1011F000002849D1A36833B901932368DA680192C2
:101200009B680193019B606D003018BF012011E0C5
:1012100022689368980705D5236B33F8021BD160C9
:101220002363D9E7FFF7EAF9C01BB042D8D3711C9A
:10123000D6D00320012384F85130002384F85030A5
:1012400002B0BDE8F08113B1B8F1010F08D12B78DD
:101250000373236B01332363E38E013B9BB2E3866D
:10126000E38E9BB2002BBED023689A68920703D509
:10127000226B12781A73ECE7FFF7C0F9C01B8642A5
:10128000EED8731CECD0D4E720236365B2E70220CC
:10129000D0E70220D4E72DE9F7431E4690F85030FE
:1012A0000A9F012B04460D46914600F0E28001237F
:1012B00080F85030FFF7A2F994F851306168DBB242
:1012C000012B80460AD0B1F5827F40F0D080A06823
:1012D000002840F0CC80042B40F0C980002D00F0A5
:1012E000C480B9F1000F00F0C080002E00F0BD8076
:1012F00094F85130C4F83890042B1CBF052384F8AF
:10130000513000236365236463642368E687E686BF
:101310001A68A687500658BF1A68256358BF42F05E
:101320004002A68658BF1A60E268B2F5006F58D135
:1013300009B1012E07D135F8022BDA60E38E25635F
:10134000013B9BB2E3860125E38E9BB2ABB9E38FF1
:101350009BB293B9424639462046FFF789FE0028E2
:1013600040F08180A368002B32D123680190DA68B5
:1013700001929B680193019B2AE022689368990778
:101380000DD5E38E9BB253B14DB1236B33F8021BE5
:10139000D1602363E38E013B9BB2E3860025936813
:1013A000DB070CD5E38F9BB24BB1A36BD26823F85C
:1013B000022BA363E38F013B9BB2E3870125FFF779
:1013C0001DF9A0EB08008742BED87E1CBCD00320CC
:1013D000012384F85130002384F8503003B0BDE875
:1013E000F08309B1012E08D12A781A73236B0133D7
:1013F0002363E38E013B9BB2E3860125E38E9BB220
:101400001BB9E38F9BB2002BA4D022689368980786
:101410000ED5E38E9BB25BB155B1236B1B78137372
:10142000236B01332363E38E013B9BB2E3860025EC
:1014300022689368D9070DD5E38F9BB253B1A36B94
:10144000D2681A70A36B0133A363E38F013B9BB295
:10145000E3870125FFF7D2F8A0EB08008742CDD83B
:101460007B1CCBD0B3E7202363650120B0E70220CB
:10147000AEE70220B2E72DE9F3411D464368B3F51C
:10148000827F0446884617460CD1836853B90423EB
:1014900080F85130134600950A46FFF7FCFE02B073
:1014A000BDE8F08194F85030012B79D0012384F805
:1014B0005030FFF7A3F8064694F85100C0B2012857
:1014C0006CD1B8F1000F57D0002F55D0042384F809
:1014D0005130002363652363E787A386E386236493
:1014E0006364A368A787B3F5004F2368C4F8388006
:1014F00002BF1A6822F480421A601A6857065EBF5B
:101500001A6842F040021A60E368F3B1E38F9BB2BD
:10151000FBB123689A68D20735D5DA68A36B23F844
:10152000022BA363E38F013B9BB2E387EEE72368C3
:101530009A68D00718D5A26B1B7B1370A36B01337D
:10154000A363E38F013B9BB2E387E38F9BB2002B46
:10155000EDD1324629462046FFF75FFDD8B9606DD0
:10156000003018BF012007E0FFF748F8801B8542D4
:10157000EBD8691CE9D00320012384F85130002303
:1015800084F850308BE7FFF739F8801B8542BDD8CF
:101590006B1CBBD0EFE720236365E0E70220EBE79D
:1015A00002207CE7022380F83D3003689A6802F04D
:1015B0000702062A1EBF1A6842F001021A600123C0
:1015C00080F83D30002070470368DA6842F001027D
:1015D000DA609A6802F00702062A1EBF1A6842F013
:1015E00001021A60002070477047704770477047CB
:1015F00003681A69910710B504460ED5DA68920798
:101600000BD56FF002021A619B6901229B070277DA
:1016100077D0FFF7EAFF0023237723681A69500782
:1016200010D5DA6851070DD56FF004021A619B6975
:10163000022213F4407F2277204668D0FFF7D5FFBF
:101640000023237723681A6912070FD5DA68100779
:101650000CD56FF008021A61DB6904229907227722
:1016600020465AD0FFF7C1FF0023237723681A6969
:10167000D20610D5DA68D0060DD56FF010021A61C7
:10168000DB69082213F4407F227720464BD0FFF716
:10169000ACFF0023237723681A69D10708D5DA68DD
:1016A000D20705D56FF001021A6120460AF0F8FC56
:1016B00023681A69100608D5DA68110605D56FF097
:1016C00080021A61204600F096F923681A695206D2
:1016D00008D5DA68500605D56FF040021A61204639
:1016E000FFF785FF23681A69910622D5DA6892060A
:1016F0001FD56FF0200220461A61BDE8104000F0AF
:1017000079B9FFF771FF2046FFF770FF83E7FFF716
:101710006BFF2046FFF76AFF92E7FFF765FF204661
:10172000FFF764FFA0E7FFF75FFF2046FFF75EFFCC
:10173000AFE710BD304A0368904212D0B0F1804F3D
:101740000FD0A2F57C4290420BD002F5806290420D
:1017500007D002F58062904203D002F578429042B1
:1017600019D14A6823F070031343234A904229D0C9
:10177000B0F1804F26D0A2F57C42904222D002F5F3
:10178000806290421ED002F5806290421AD002F52B
:101790007842904216D0194A904213D002F58062E6
:1017A00090420FD002F5806290420BD0A2F59832A1
:1017B000904207D002F58062904203D002F5806229
:1017C000904203D1CA6823F4407313434A6923F05B
:1017D0008003134303608B68C3620B688362064B0C
:1017E000984203D003F58063984201D10B690363EB
:1017F00001234361704700BF0000014000400140E9
:1018000010B50446A0B190F83D3003F0FF021BB9BB
:1018100080F83C200AF0EAFC022384F83D3020687E
:10182000211DFFF787FF012384F83D30002010BD04
:10183000012010BD10B584680A4324F47F4442EAB5
:1018400003232343836010BD90F83C30012B70B517
:1018500004464FF0020019D084F83D0020680123AF
:1018600084F83C30836823F47F4323F0770383605C
:101870000B68402B65D015D8102B0CD007D853B16E
:101880000123002084F83D3084F83C0070BD202BFB
:1018900001D0302BF4D1826843F0070322F07002AC
:1018A00013431AE0602B34D019D8502BE8D14A6882
:1018B000CE68016A056A25F001050562836921F099
:1018C0000A0123F0F00343EA06130A43836102622C
:1018D000836823F0700343F057038360D0E7702BD5
:1018E0000CD0B3F5005FCBD1CB684A688968FFF7AD
:1018F000A1FF2268936843F4804308E0CB684A68FC
:101900008968FFF797FF2268936843F07703936035
:10191000B6E74D68CE68016A21F010010162826964
:10192000036A22F4704223F0A00343EA051342EA5B
:10193000063282610362836823F0700343F0670319
:10194000CBE74A68CE68016A056A25F001050562A1
:10195000836921F00A0123F0F00343EA06130A43E6
:1019600083610262836823F0700343F04703B4E7A6
:1019700090F83C30012B30B54FF0020335D080F8A1
:101980003D3003680D685C6824F0700401222C432C
:1019900080F83C209A685C60154CA3421AD0B3F1E1
:1019A000804F17D0A4F57C44A34213D004F5806483
:1019B000A3420FD004F58064A3420BD004F5784411
:1019C000A34207D004F57054A34203D0A4F5943485
:1019D000A34204D1496822F080020A439A6001239D
:1019E00080F83D30002380F83C30184630BD00BF01
:1019F000000001407047704738B50368C1681A6934
:101A0000044622F440520A431A612569A268D96843
:101A1000C0692A43656921F416412A4321F00C016B
:101A200002430A43DA605A69A16922F440720A4308
:101A3000B0F5004F5A61254A29D1934203D002F5EF
:101A40008062934220D1FFF77FFA6268256892187E
:101A50004FF000034FF019015B41A0FB0101FEF7BD
:101A60001FFC6421B0FBF1F401FB1403DB003233F3
:101A7000B3FBF1F303F007025B0002EB041203F483
:101A8000F8731344AB6038BDFFF74EFADDE79342BD
:101A900002D00F4A934216D1FFF756FA63682568C1
:101AA00019219A00A0FB01019B0FFEF7F9FB6422AC
:101AB000B0FBF2F102FB11031B013233B3FBF2F373
:101AC00003EB0113DEE7FFF72FFAE7E70010014011
:101AD00000140140F8B504460E4617461D4621681D
:101AE0000B6836EA030301D10020F8BD6B1CF7D068
:101AF00095B92368DA6822F4D072DA605A6922F064
:101B000001025A61202384F8393084F83A300023E6
:101B100084F838300320F8BDFEF770FDC01B854205
:101B2000DDD2E6E710B5044640B390F8393003F053
:101B3000FF021BB980F838200AF08EFB22682423AC
:101B400084F83930D36823F40053D3602046FFF77C
:101B500053FF23681A6922F490421A615A6922F0ED
:101B60002A025A61DA6842F40052DA600020202327
:101B7000E06384F8393084F83A3010BD012010BD9C
:101B80002DE9F8431F4690F83930202B04460D46C6
:101B9000904651D100294CD0002A4AD090F83830D4
:101BA000012B49D0012380F838304FF00009212360
:101BB000C0F83C9080F83930FEF720FDA4F824806E
:101BC0000646A4F8268084F83890E38C9BB25BB973
:101BD0003B46324640212046FFF77CFFA0B9202338
:101BE00084F83930BDE8F883E38C013B9BB2E38491
:101BF000A368B3F5805F32463B464FF08001204634
:101C00000ED1FFF767FF10B10320BDE8F8832B88E2
:101C10002268C3F308035360236943B90235D4E74C
:101C2000FFF758FF0028EFD123682A785A60013562
:101C3000CBE70120BDE8F8830220BDE8F88308B5B2
:101C400001F094FA002008BDEFF305830BB101F019
:101C5000D1BA01F0C9BA70B5054646692A6940682B
:101C6000B5F908400B4686B0296876B1AD6965B113
:101C7000842C14BF0334002402958DE8500001F039
:101C8000A7F90590059806B070BD842C14BF0334E5
:101C9000002405AD92B28DE8300001F0D0F90128A2
:101CA000F0D00020EFE708B501F0F6F9002008BDFC
:101CB00008B5002808BF012001F0AEFB002008BDD8
:101CC0004168012009B100F0A8BD00F09BBD0000F3
:101CD00013B500240194E0B1EFF30583A3B101AA89
:101CE000214600F0C3FF012802D0FF2002B010BD42
:101CF000019B3BB1084B4FF080521A60BFF34F8FEE
:101D0000BFF36F8F0020F1E700F0F0FE0128ECD167
:101D1000F8E78020EAE700BF04ED00E013B50024F7
:101D20000194EFF3058393B101A900F0E6FD0128CA
:101D300013D1019B13B9002002B010BD084B4FF026
:101D400080521A60BFF34F8FBFF36F8FF3E71A46CD
:101D5000194600F097FC0128EDD0FF20ECE700BF0A
:101D600004ED00E0FFF7DABF07B582684AB1C36847
:101D70003BB10021009103C800F016FC03B05DF8F0
:101D800004FB03C8002203B05DF804EB00F055BC6F
:101D90001FB5002401910394A24208BF0122EFF372
:101DA0000583ABB1234603AA01A900F044FD012835
:101DB00002D0FF2004B010BD039B3BB1074B4FF096
:101DC00080521A60BFF34F8FBFF36F8F0020F1E78F
:101DD00001A900F057FC0128EBD1F7E704ED00E082
:101DE000F0B585B0002604461746084603910296D2
:101DF00001AD11B98023019317E00096EFF305833D
:101E0000D3B16A4602A900F031FF012804BF1023B4
:101E10000193009B18BF01963BB10D4B4FF08052D0
:101E20001A60BFF34F8FBFF36F8F95E8070084E808
:101E30000700204605B0F0BD02A900F0B3FD01285F
:101E400001D11023D7E7002F0CBF00234023D2E796
:101E500004ED00E000F1080343604FF0FF32C3607F
:101E600003610023826003607047002303617047B1
:101E700043684B609A688A609A6851609960036809
:101E800008610133036070470A68531C30B50AD1FA
:101E900003695A684A6091608B6059600368086101
:101EA0000133036030BD00F108035C682568AA4275
:101EB000EFD32346F9E74168826803698A60826844
:101EC00051605968884208BF5A60002202611A684E
:101ED000013A1A601868704782B0002301930D4BD5
:101EE0001B68013308D04FF0500383F31188BFF310
:101EF0006F8FBFF34F8FFEE74FF0500383F31188CE
:101F0000BFF36F8FBFF34F8F019B002BFCD002B04C
:101F1000704700BF0800002008480068006880F390
:101F200008884FF0000080F3148862B661B6BFF3F2
:101F30004F8FBFF36F8F00DF00BF000008ED00E0A0
:101F4000DFF80C00016841F4700101607047000087
:101F500088ED00E04FF0807340F8043C074B40F8F8
:101F60000C3C21F001016FF0020340F8081C40F81E
:101F7000202C40F8243C4438704700BFD91E00088C
:101F8000074B19680868B0E8F04F80F30988BFF381
:101F90006F8F4FF0000080F311887047AFF300801F
:101FA000B8F000204FF0500383F31188BFF36F8F18
:101FB000BFF34F8F0A4A13680133012B13600DD111
:101FC000084B1B6813F0FF0F08D04FF0500383F34A
:101FD0001188BFF36F8FBFF34F8FFEE7704700BFCD
:101FE0000800002004ED00E0084A136843B94FF0F0
:101FF000500383F31188BFF36F8FBFF34F8FFEE75A
:10200000013B13600BB983F311887047080000206F
:10201000EFF30980BFF36F8F154B1A681EF0100F96
:1020200008BF20ED108A20E9F04F10602DE909006B
:102030004FF0500080F31188BFF34F8FBFF36F8FC5
:1020400001F00EFA4FF0000080F3118809BC196806
:102050000868B0E8F04F1EF0100F08BFB0EC108A0F
:1020600080F30988BFF36F8F704700BFAFF3008024
:10207000B8F0002008B54FF0500383F31188BFF388
:102080006F8FBFF34F8F01F0BDF818B1034B4FF0C6
:1020900080521A60002383F3118808BD04ED00E02C
:1020A000084A0949002313600B60084B4FF47A710A
:1020B0001B68B3FBF1F30649013B0B600723136078
:1020C000704700BF10E000E018E000E014000020BE
:1020D00014E000E0394B3A4A13B51968914208D12F
:1020E0004FF0500383F31188BFF36F8FBFF34F8F0F
:1020F000FEE71A68334B9A4208D14FF0500383F33E
:102100001188BFF36F8FBFF34F8FFEE72E4B1A7806
:10211000D2B20192FF221A701B782C4ADBB28DF8E2
:1021200003309DF8033003F050031370284B07224F
:102130001A6000219DF80300000602F1FF340DD45F
:1021400001B11A601A68032A11D04FF0500383F3CB
:102150001188BFF36F8FBFF34F8FFEE79DF8032009
:102160005200D2B28DF8032001212246E2E712028A
:1021700002F4E0621A60019B134ADBB21370154B44
:102180001A6842F470021A601A6842F070421A60CB
:10219000FFF786FF104B00241C60FFF7D1FE0F4AAB
:1021A000136843F040431360FFF7B6FE01F058F99F
:1021B000FFF792FE204602B010BD00BF00ED00E028
:1021C00071C20F4170C20F4100E400E0980000208E
:1021D0009C00002020ED00E00800002034EF00E02B
:1021E000EFF305830F2B0ED9104A9B5C104A12782F
:1021F0009A4208D94FF0500383F31188BFF36F8FD1
:10220000BFF34F8FFEE70B4B0B4A1B68126803F4BA
:10221000E063934208D94FF0500383F31188BFF372
:102220006F8FBFF34F8FFEE7704700BFF0E300E012
:10223000980000200CED00E09C00002010B50F4B32
:102240001A68824218D35C681919884201BF416834
:10225000184609195960446801198A4207D108498A
:1022600009688A421FBF5168126809194160984283
:10227000026018BF186010BD1346E1E7B0F00020FF
:10228000A00000202DE9F041044600F0A5FF3E49E2
:102290003E4D0B680BBB3E4A56071FBFD01D20F0BA
:1022A000070002F570431B1A14BF02464FF4704337
:1022B0001344083B23F00703364E0B600020706088
:1022C000326058601860981A1360334B5060186081
:1022D000324B18604FF000432B602F68274216D115
:1022E000002C41D004F1080358071CBF23F007035A
:1022F000083363B1294A1668B342904607D8254A85
:1023000015686868834204D809688D4207D10024A3
:102310002AE02C68002CF7D02A462546F1E72968E8
:1023200014681160C21A102A0FD9E818410708D0A2
:102330004FF0500383F31188BFF36F8FBFF34F8FBC
:10234000FEE742606B60FFF779FF13496B6808682E
:10235000F61A1F4386424FF00003C8F8006038BFEA
:102360000E6008346F602B6000F0DEFF630708D05A
:102370004FF0500383F31188BFF36F8FBFF34F8F7C
:10238000FEE72046BDE8F081A0000020A4F0002078
:10239000A4000020B0F00020ACF00020A8F0002045
:1023A00010B5044670B3184A50F8043C1268134242
:1023B00008D14FF0500383F31188BFF36F8FBFF341
:1023C0004F8FFEE750F8081C41B14FF0500383F3E4
:1023D0001188BFF36F8FBFF34F8FFEE723EA02032D
:1023E00040F8043C00F0F8FE084A54F8043C116838
:1023F000A4F108000B441360FFF720FFBDE8104074
:1024000000F092BF10BD00BFA4F00020A8F0002093
:1024100010B50446FFF7C6FDA46BFFF7E5FDB4FA5F
:1024200084F0400910BD70B51546026C866B0446F9
:1024300042B905689DB9406801F05AF965600136F6
:10244000A66370BD6DB980680AF041F8A368226C7C
:1024500013446268A360934201D32368A360002001
:10246000EDE7C0680AF033F8236CE26821685B424C
:102470001A448A42E2603EBF62689B18E360022D04
:10248000EDD10EB1013EEAE73046D8E7034610B47D
:102490001A6C084662B1D9685C681144A142D960DF
:1024A00024BF1968D960D9685DF8044B0AF00FB8E9
:1024B0005DF8044B704770B50446FFF773FD94F860
:1024C000455004F124066DB2002D14DCFF2384F87E
:1024D0004530FFF789FDFFF765FD94F8445004F19E
:1024E00010066DB2002D12DCFF2384F84430BDE8E5
:1024F0007040FFF779BD636A002BE7D0304601F0EA
:1025000003F808B101F08AF8013D6DB2DCE72369F8
:10251000002BE9D0304600F0F7FF08B101F07EF85B
:10252000013D6DB2DEE7000038B50D46044640B906
:102530004FF0500383F31188BFF36F8FBFF34F8FBA
:10254000FEE7FFF72FFD206CE36B2268A260434398
:10255000D1181B1A13446160E3600021FF23A163BB
:1025600084F8443084F8453095B9236963B104F1A7
:10257000100000F0C9FF38B10A4B4FF080521A60CA
:10258000BFF34F8FBFF36F8FFFF72EFD012038BDD4
:1025900004F11000FFF75EFC04F12400FFF75AFC81
:1025A000F2E700BF04ED00E013B51C4640B94FF060
:1025B000500383F31188BFF36F8FBFF34F8FFEE794
:1025C00043B94FF0500383F31188BFF36F8FBFF30C
:1025D0004F8FFEE74AB1D9B94FF0500383F311880A
:1025E000BFF36F8FBFF34F8FFEE789B14FF05003FA
:1025F00083F31188BFF36F8FBFF34F8FFEE74FF068
:10260000500383F31188BFF36F8FBFF34F8FFEE743
:1026100048230193019B482BF1D10123002908BFD6
:102620002246E063216484F8463022601946204641
:10263000FFF77AFF204602B010BD70B50D46064682
:1026400040B94FF0500383F31188BFF36F8FBFF38E
:102650004F8FFEE748434830FFF714FE044650B161
:10266000002380F8463045B92060E66325640121E7
:102670002046FFF759FF204670BD00F14803036074
:10268000F3E700002DE9FF47894601921F46044603
:1026900040B94FF0500383F31188BFF36F8FBFF33E
:1026A0004F8FFEE7002940F08880036C002B00F07C
:1026B00084804FF0500383F31188BFF36F8FBFF313
:1026C0004F8FFEE7019E002E00F082804FF05003F6
:1026D00083F31188BFF36F8FBFF34F8FFEE7019D28
:1026E0001DB9FFF781FC002058E016B902A800F0E0
:1026F0004DFFFFF779FC00F06FFDFFF753FC94F8F6
:102700004430FF2B08BF84F8448094F84530FF2BF9
:1027100008BF84F84580FFF767FC01A902A800F014
:1027200041FF002843D1FFF73DFCA66BE56BFFF7A7
:102730005BFCAE4235D1019904F1100000F0CAFEF5
:102740002046FFF7B8FE00F0EFFD38B94FF0805398
:10275000CAF80030BFF34F8FBFF36F8F0126FFF72A
:1027600021FCA26BE36B9A4201D3022FB7D13A4608
:1027700049462046FFF757FE636A1BB104F1240067
:1027800000F0C2FE38B1194B4FF080521A60BFF30F
:102790004F8FBFF36F8FFFF727FC012004B0BDE818
:1027A000F0872046FFF787FE00F0BEFDD6E7204603
:1027B000FFF781FE00F0B8FD95E7022F02D1E36B31
:1027C000012B0AD100F030FF00283FF47BAF002638
:1027D0004FF00008DFF814A0C1E74FF0500383F377
:1027E0001188BFF36F8FBFF34F8FFEE704ED00E05A
:1027F00038B1002343600360C3601A461946FFF7EF
:1028000041BF704710B5024600210120FFF715FFB8
:102810000446FFF7EDFF204610BD13B500220B461E
:10282000009011460120FFF7BFFE0446FFF7E0FFCE
:10283000204602B010BD2DE9F843884691461F4658
:10284000044640B94FF0500383F31188BFF36F8FF4
:10285000BFF34F8FFEE709BB036CFBB14FF0500392
:1028600083F31188BFF36F8FBFF34F8FFEE704F13F
:10287000240000F049FE002834D0B9F1000F31D017
:102880000120C9F8000086F31188BDE8F8830135FE
:102890006DB284F8455025E00020F4E7022F02D104
:1028A000E36B012B20D1FFF79BFCEFF311864FF078
:1028B000500383F31188BFF36F8FBFF34F8FA26B69
:1028C000E36B9A4201D3022FE6D194F845503A4681
:1028D0006DB241462046FFF7A6FD6B1CD7D1636A57
:1028E000002BC4D10120CEE74FF0500383F31188B1
:1028F000BFF36F8FBFF34F8FFEE770B50D460446F1
:1029000040B94FF0500383F31188BFF36F8FBFF3CB
:102910004F8FFEE7036C43B14FF0500383F31188F0
:10292000BFF36F8FBFF34F8FFEE703680BB94368A8
:1029300073BBFFF755FCEFF311864FF0500383F3A1
:102940001188BFF36F8FBFF34F8FA26BE36B9A4277
:1029500001D3002014E094F8453001325BB2A26349
:102960005A1C10D1636A0BB9012009E004F124005C
:1029700000F0CAFD0028F7D0002DF5D00120286016
:1029800086F3118870BD01335BB284F84530EBE704
:102990004FF0500383F31188BFF36F8FBFF34F8F56
:1029A000FEE700002DE9F04385B088460192044619
:1029B00040B94FF0500383F31188BFF36F8FBFF31B
:1029C0004F8FFEE7002940F08680036C002B00F05B
:1029D00082804FF0500383F31188BFF36F8FBFF3F2
:1029E0004F8FFEE7019E002E7AD04FF0500383F305
:1029F0001188BFF36F8FBFF34F8FFEE7019D1DB9A5
:102A0000FFF7F2FA002052E016B902A800F0BEFD6E
:102A1000FFF7EAFA00F0E0FBFFF7C4FA94F844305D
:102A2000FF2B08BF84F8447094F84530FF2B08BF93
:102A300084F84570FFF7D8FA01A902A800F0B2FDAA
:102A400000283DD12046FFF7E3FC98B3019904F13B
:102A5000240000F03FFD2046FFF72DFD00F064FC50
:102A600038B94FF08053C9F80030BFF34F8FBFF330
:102A70006F8F0126FFF796FAA56B002DBED0414659
:102A80002046013DFFF702FDA563236963B104F110
:102A9000100000F039FD38B1134B4FF080521A602E
:102AA000BFF34F8FBFF36F8FFFF79EFA012005B082
:102AB000BDE8F0832046FFF7FEFC00F035FCD8E7C8
:102AC0002046FFF7F8FC00F02FFC2046FFF7A0FCA3
:102AD0000028CED096E700F0A7FD002882D000267F
:102AE0000027DFF80490C5E704ED00E02DE9FF4181
:102AF0000446019140B94FF0500383F31188BFF3AE
:102B00006F8FBFF34F8FFEE7056C45B14FF0500359
:102B100083F31188BFF36F8FBFF34F8FFEE700F091
:102B200083FD18B9019D002D40F09580DFF83881B4
:102B30002E460027FFF736FAA36BE3B1013BA363F0
:102B4000236813B900F07EFE6060236963B104F16D
:102B5000100000F0D9FC38B1434B4FF080521A609E
:102B6000BFF34F8FBFF36F8FFFF73EFA0125284663
:102B700004B0BDE8F081019B63B945B14FF050034B
:102B800083F31188BFF36F8FBFF34F8FFEE7FFF71B
:102B90002BFAECE716B902A800F0F8FCFFF724FACC
:102BA00000F01AFBFFF7FEF994F84430FF2B08BF42
:102BB00084F8447094F84530FF2B08BF84F84570C2
:102BC000FFF712FA01A902A800F0ECFC40BB204676
:102BD000FFF71EFCF0B123683BB9FFF7E3F960682B
:102BE00000F032FD0546FFF7FFF9019904F12400DA
:102BF00000F070FC2046FFF75EFC00F095FB38B952
:102C00004FF08053C8F80030BFF34F8FBFF36F8F82
:102C100001268FE72046FFF74EFC00F085FBF7E723
:102C20002046FFF748FC00F07FFB2046FFF7F0FB53
:102C30000028EDD0002D9AD0FFF7B4F9616A19B1E0
:102C4000236B1968C1F10701606800F0A1FD002540
:102C5000FFF7CAF98BE74FF0500383F31188BFF3F6
:102C60006F8FBFF34F8FFEE704ED00E02DE9F843CF
:102C700089469046054640B94FF0500383F31188CA
:102C8000BFF36F8FBFF34F8FFEE771BB036C63B36E
:102C90004FF0500383F31188BFF36F8FBFF34F8F53
:102CA000FEE795F84460494676B22846FFF7EEFB0A
:102CB000013C731CAC6313D12B690BB901200BE0F1
:102CC00005F1100000F020FC0028F7D0B8F1000F4B
:102CD000F4D00120C8F8000087F31188BDE8F8831C
:102CE000013676B285F84460E8E7FFF779FAEFF34A
:102CF00011874FF0500383F31188BFF36F8FBFF339
:102D00004F8FAC6B002CCCD12046E5E72DE9F0418C
:102D10000646FFF747F92D4B2D4C1A682D4F01320F
:102D20001A602568002D45D126601B68012B1CD137
:102D300078191435FFF78EF88C2DF9D1DFF8C080A3
:102D4000254D4046FFF786F82846FFF783F82348CD
:102D5000FFF780F82248FFF77DF82248FFF77AF85E
:102D6000214BC3F80080214B1D60214A2149136883
:102D7000086801331360F26A01239340034314206F
:102D80000B6000FB0270311DFFF772F8FFF72CF9A2
:102D9000194B1B6863B12368DA6AF36A9A4207D257
:102DA000164B4FF080521A60BFF34F8FBFF36F8FF7
:102DB000BDE8F081104B1B68002BD6D12368DA6A7E
:102DC000F36A9A4298BF2660CFE700BF50F1002017
:102DD000B8F00020C4F000207CF1002098F1002021
:102DE000C4F10020B0F10020BCF00020C0F00020B1
:102DF00060F1002064F10020ACF1002004ED00E05F
:102E000068F10020064A13681968064B19B94FF09B
:102E1000FF321A6070471268D268D2685268F8E7C9
:102E2000BCF0002090F100202DE9F0470A9CDDF86D
:102E30002480266B02F18042013A06EB82069A4614
:102E400081464B1E26F0070604F134020F315878F4
:102E500002F8010B13F8010F08B18B42F7D1089D5E
:102E6000062D28BF06250027E5626564201D84F82D
:102E70004370A764FEF7F9FFC5F1070504F11800D8
:102E8000FEF7F3FFE7642461A561646284F8507083
:102E9000524649463046FFF75DF82060B8F1000F12
:102EA00001D0C8F80040BDE8F08710B590F8513067
:102EB00004463BB9006BFFF773FA2046BDE81040AB
:102EC000FFF76EBA012BF9D0022B08D04FF0500358
:102ED00083F31188BFF36F8FBFF34F8FFEE710BDF1
:102EE00080B5DFF85C80124F124C134D236863B934
:102EF000124B1B68012BF8D94FF08053C8F80030F3
:102F0000BFF34F8FBFF36F8FEEE7FFF74BF8FB6810
:102F1000DE68301DFEF7CFFF2B68013B2B60236876
:102F2000013B2360FFF760F83046FFF7BEFFDDE7A7
:102F3000C4F1002054F1002050F10020C4F0002022
:102F400004ED00E0F8B51B4B1B4E1D6804463068CD
:102F500004300F46FEF7AFFF334640B93168174ED5
:102F6000C96A32680120884022EA00023260621C8D
:102F700007D137B1196812480431BDE8F840FEF7AF
:102F800077BF2C441A68A542546007D90D4A1068CF
:102F90001968BDE8F8400431FEF776BF0A4A1068A8
:102FA00019680431FEF770FF084B1A68944238BF65
:102FB0001C60F8BDD8F10020B8F0002064F10020BA
:102FC000B0F10020C0F00020BCF0002090F1002003
:102FD00070B586B00B9D0C9C45B94FF0500383F340
:102FE0001188BFF36F8FBFF34F8FFEE744B94FF0E7
:102FF000500383F31188BFF36F8FBFF34F8FFEE74A
:1030000054260496049E542E08D04FF0500383F3A8
:103010001188BFF36F8FBFF34F8FFEE72563022543
:1030200084F8515005AD01950A9D02940095FFF773
:10303000FBFE2046FFF76AFE059806B070BD2DE93D
:10304000F043074685B09000884616469946FFF73C
:1030500019F90546E8B15420FFF714F90446A8B160
:10306000002380F851300D9B056301930C9B029067
:10307000009332464B4641463846FFF7D5FE204680
:10308000FFF744FE012005B0BDE8F0832846FFF7B6
:1030900087F94FF0FF30F6E770B50446294DFEF78B
:1030A00081FF04B92C68261D3046FEF704FF60B985
:1030B000E06A254B142141435B5833B9234901226F
:1030C0000B68824023EA02030B60A36A1BB104F180
:1030D0001800FEF7F0FE1E4A1368013313602B68D8
:1030E0009C421BD131461B48FEF7C2FE1A4A1368A8
:1030F00001331360FEF778FF184B1B6803B32B688E
:103100009C421DD1164B1B6893B14FF0500383F3C3
:103110001188BFF36F8FBFF34F8FFEE7114A13681B
:103120002046013B1360FFF7C0FEFFF76BFEE1E7AF
:103130000D4B4FF080521A60BFF34F8FBFF36F8F6C
:1031400070BD00BFB8F00020C4F0002064F1002082
:1031500060F10020C4F1002054F10020ACF1002007
:103160005CF1002050F1002004ED00E010B588B0C3
:10317000002407AA06A905A80594069408F016FBE2
:10318000059B0293069B019300942346079A0D49E1
:103190000D48FFF71DFF90B14FF0500383F31188E6
:1031A000BFF36F8FBFF34F8F084B4FF0FF321A60A2
:1031B000074B01221A60074B1C60FEF78BFF08B01B
:1031C00010BD00BF60D70008E12E000890F100207C
:1031D000ACF10020D8F10020024A136801331360DB
:1031E000704700BF5CF10020014B1868704700BFBA
:1031F000D8F1002008B5FEF7F3FF014B186808BDB1
:10320000D8F100202DE9F84F3C4B1B68002B53D11F
:103210003B4B1C6801341C60BCB93A4B1A681268FD
:1032200042B14FF0500383F31188BFF36F8FBFF3A8
:103230004F8FFEE7344A1968106818601160334AEE
:10324000136801331360FFF7DDFD314D314F2B68FB
:103250009C424FF0000B3ED3DFF8A880DFF8C4900B
:10326000D8F80020126872BB4FF0FF322A6032E0BB
:1032700006F1040A5046FEF71EFEB16A19B106F1C6
:103280001800FEF718FEF06AD9F80030012202FAA1
:1032900000F11943204BC9F800104FF0140E5146AD
:1032A0000EFB0030FEF7E4FD3868F16AC26A914215
:1032B00028BF4FF0010BD3E7184A1368013313609E
:1032C0004FF0000B11E0D8F80020D268D668716882
:1032D0008C42CDD229603A680F4BD16A14224A43FE
:1032E0009A58022A28BF4FF0010B0D4A1268002A93
:1032F00018BF4FF0010B5846BDE8F88F5CF1002075
:10330000D8F10020BCF00020C0F0002094F1002093
:1033100090F10020B8F00020C4F0002058F1002007
:10332000DCF1002064F100202DE9F843314C2368E2
:1033300043B94FF0500383F31188BFF36F8FBFF38E
:103340004F8FFEE7FEF72EFE2368013B23602468C3
:103350002CB10024FEF748FE2046BDE8F883264B3A
:103360001B68002BF5D0DFF8A890244FDFF8A4806D
:10337000D9F80030E3B90CB1FFF744FD204D2C68BB
:1033800044B1204E0127FFF73DFF00B13760013CFB
:10339000F9D12C601B4B1B68002BDAD01A4B4FF075
:1033A00080521A60BFF34F8FBFF36F8F0124D1E7B4
:1033B000D9F80C30DC68261D04F11800FEF77BFDFF
:1033C0003046FEF778FDE26A3968012505FA02F316
:1033D00014200B4300FB028031463B60FEF748FDA2
:1033E0000A4BE26A1B68DB6A9A4224BF054B1D60E8
:1033F000BEE700BF5CF1002050F1002064F1002026
:1034000058F10020DCF1002004ED00E0B8F00020CD
:1034100098F10020C4F0002008B540B90E4B4FF0E1
:1034200080521A60BFF34F8FBFF36F8F08BD0B4BF5
:10343000196841B14FF0500383F31188BFF36F8FC8
:10344000BFF34F8FFEE7FFF7C7FEFFF77BFDFFF7E8
:103450006BFF0028E2D008BD04ED00E05CF1002025
:10346000174B1A68174B10B512B101221A6010BD24
:103470001A60154B1B68B3FA83F3DBB2C3F11F0369
:10348000142212495A4388188C5844B94FF05003FB
:1034900083F31188BFF36F8FBFF34F8FFEE744684C
:1034A0000832646844600A44944204BF626842601F
:1034B000142202FB03135B68DA68054BD6E700BFF2
:1034C0005CF10020DCF1002064F10020C4F0002059
:1034D000B8F0002010B50C4640B94FF0500383F30C
:1034E0001188BFF36F8FBFF34F8FFEE7054B19684D
:1034F0001831FEF7C9FC20460121BDE81040FFF756
:1035000021BD00BFB8F0002038B5C368DC6844B9FD
:103510004FF0500383F31188BFF36F8FBFF34F8FCA
:10352000FEE704F118052846FEF7C5FC114B1B68A1
:10353000E3B9251D2846FEF7BEFC0F49E26A08687C
:103540000123934003430B600C4B1420294600FBDE
:103550000230FEF78DFC0A4BE26A1B68DB6A9A4276
:1035600083BF084B01201860002038BD294606485B
:10357000EFE700BF5CF1002064F10020C4F0002000
:10358000B8F00020DCF1002098F10020034B1B680C
:103590000360034B1B684360704700BF94F1002039
:1035A000D8F1002070B50C46054640B94FF05003E5
:1035B00083F31188BFF36F8FBFF34F8FFEE741B9DD
:1035C0004FF0500383F31188BFF36F8FBFF34F8F1A
:1035D000FEE7FEF7E7FC0F4B69681A682368581C82
:1035E0000ED00D482E680068864201D08A420ED265
:1035F000521A9A4209D29B1A23602846FFF7C6FF47
:103600000024FEF7F1FC204670BD00232360012456
:10361000F7E700BFD8F1002094F10020014B012210
:103620001A607047DCF10020054B1B6833B1054B75
:103630001B68002B0CBF0220002070470120704740
:10364000ACF100205CF100202DE9F0410446002897
:1036500041D0244AC36A1168C96A8B42174631D2E5
:103660008269214D002AA1BF3A68D26AC2F10702DD
:1036700082611426426906FB03539A422DD100F160
:1036800004084046FEF717FC184B48B9E06A464369
:10369000AA592AB91A680121814022EA01021A6056
:1036A0003A681968D26AE262012404FA02F0084317
:1036B00018601420414600FB0250FEF7D9FB0120A0
:1036C000BDE8F0811368406CDC6AA0422CBF00208A
:1036D0000120BDE8F081BDE8F0813B68DB6AC36290
:1036E000EDE700BFB8F00020C4F0002064F1002036
:1036F000F8B5044608B90020F8BD224B1B68984273
:1037000008D04FF0500383F31188BFF36F8FBFF3DE
:103710004F8FFEE7836C43B94FF0500383F311885A
:10372000BFF36F8FBFF34F8FFEE7C16A426C013B5F
:1037300091428364DFD0002BDDD1051D2846FEF7C2
:10374000BAFB114E114A50B9E76A142179437358F4
:103750002BB913680120B84023EA00031360636C9F
:10376000E362C3F10701A1611168012404FA03F0C7
:1037700008431060142000FB03602946FEF778FB25
:103780002046F8BDB8F00020C4F0002064F100200D
:10379000F8B5044600284DD0826C42B94FF0500372
:1037A00083F31188BFF36F8FBFF34F8FFEE7436C36
:1037B000994238BF1946C36A8B423BD0012A39D19E
:1037C0001D4A1268904208D14FF0500383F31188CC
:1037D000BFF36F8FBFF34F8FFEE78269174DC16252
:1037E000002A4FF014064269A8BFC1F1070106FB89
:1037F0000353A8BF81619A421CD1071D3846FEF7CA
:103800005AFBE26A0E4C40B95643AB592BB92368B8
:103810000121914023EA01032360216801239340A1
:103820000B4314202360394600FB0250BDE8F840EA
:10383000FEF71EBBF8BD00BFB8F00020C4F00020AA
:1038400064F10020044B1A681AB119688A6C0132BD
:103850008A641868704700BFB8F000201D4B1B68D1
:1038600007B513B11C4A106898471C481B4D1C4EE5
:103870001C4C07F044FA284607F046FA01A93046E6
:1038800006F05AFF284607F03AFA019B33B923465F
:1038900069221549154808F02DFEECE71A78032A2D
:1038A0000BD0042A0FD0022A11D1181D07C8904747
:1038B0000199092003F09CFADDE798685A6890475F
:1038C00001990820F6E75A6898689047D3E723469D
:1038D0009B22DEE7E4F10020E8F10020FCF5002067
:1038E000E0F10020BDD70008EDD700080BD8000894
:1038F000F8B5074610480E46154607F0DFF928B917
:103900000E4B0F490F48B52208F0F4FD092003F0D3
:1039100053FA044668B10223037047608660C560AD
:103920000146054807F09EF928B12146092003F019
:103930005FFA4FF0FF30F8BDE0F10020BDD700087E
:10394000B0D700080BD8000891F8393013F0180FE1
:1039500014BF024A024AFFF7CBBF00BF39AB0008D1
:103960008D5E000837B505460C4600F090FF134BFE
:1039700013481D60134B05211C6007F061F930B13D
:10398000114B1249124840F2D51208F0B3FD11480C
:1039900007F0A6F930B10C4B0F490D4840F2D9128F
:1039A00008F0A8FD0523009300224FF47A730B4919
:1039B0000B4807F0ACF903B030BD00BFE4F10020C4
:1039C000E0F10020E8F10020BDD7000865D700082D
:1039D0000BD80008FCF5002088D700085D380008E7
:1039E000A9D70008038850FA83F210B50C0A1471A5
:1039F0009A1C0133028050FA83F0017110BD0388D4
:103A000030B550FA83F4150A25719C1C013350FA25
:103A100083F304801A710C46631A9BB29A4200D851
:103A200030BD03885D1C058050FA83F314F8015BF8
:103A30001D71F1E7F8B50D4616461F46044630B92C
:103A40000A4B0B490B4840F2051208F053FD0023C6
:103A5000E258E018904204D1002380E8C800858134
:103A6000F8BD1033402BF3D10020F8BD73DA000805
:103A7000A8DA00080BD8000870B54C1C0D46A4B29B
:103A8000064630B90A4B0B490B484FF4F47208F064
:103A900031FD0134ED09A4B2FBD130887388C01A1E
:103AA00080B2C0F580708442CCBF0020012070BD80
:103AB00073DA0008EEDA00080BD80008F8B50E46F5
:103AC000074630B9104B1149114840F2211208F055
:103AD00011FD00243B68254673B91E2C06DD0A4BF8
:103AE0000C490B4840F2291208F004FDC4F11E04F1
:103AF000F4813DB93E60F8BDDA8914441D4624B214
:103B00001B68E9E72E60F8BD73DA000833D80008B7
:103B10000BD8000855D8000838B50D46044630B912
:103B20000F4B1049104840F2491208F0E3FC20689E
:103B3000002200B938BD8389AB42036804D0024635
:103B40001846F6E7136002E0002AFBD12360036801
:103B50001BB1DA89C1890A44DA810023036038BDC8
:103B600073DA00087BDC00080BD80008F8B5B1F860
:103B7000604006460F46002C45D043880588D9B2E0
:103B8000ED1AADB2C1F58073AB42A8BF2B46002B36
:103B900039D09BB2A34234D29D4294BF0025012567
:103BA0001C46002D01F1040114BF0323012322460A
:103BB0003144384605F00AFE28BBD5B173881C4451
:103BC000A3B234887380D9B2E41AB7F86030A4B2D3
:103BD0009C42A8BF1C46C1F580739C42A8BF1C46EE
:103BE000A4B20431012322463144384605F0EEFDEB
:103BF00048B973881C4474803846BDE8F84006F024
:103C0000B3B90025CDE7F8BD08B5837A032B02D1FF
:103C1000EC30FFF7ABFF002008BD000070B5044694
:103C20000E461546DAB9A2660E49304603F088FE04
:103C30000D49304603F09AFE02220C49304603F04B
:103C4000C3FE02230A49A37241F28830224606F0DD
:103C50008FFC2046E16820F8EC5BFFF787FF2846E1
:103C600070BD00BF69400008293D0008093C0008FC
:103C7000A93D000870B50E46044630B9194B1A49E3
:103C80001A484FF4FE7208F035FCE06898B1002144
:103C900003F056FE0021E06803F07EFEE06800219C
:103CA00003F064FEE06804F07DF910B1E06804F010
:103CB0008BFA0023E360A5697DB9A56121460C4814
:103CC00006F016FDA37A63B16369A5724BB1324663
:103CD00021692046BDE8704018472B682D601D46BD
:103CE000EAE770BD73DA000858DA00080BD800085C
:103CF000A93D000810B5044630B9084B08490948E9
:103D000040F2AE3208F0F6FB0023E36020464FF4A9
:103D10008071BDE81040FFF7ADBF00BF73DA000847
:103D20009BDC00080BD8000870B5837A032B04468F
:103D30000FD100230380838000F118060021304654
:103D4000FFF7EAFE054630B9E16804F1EC00FFF741
:103D50000DFF002070BD6B6813B10021A868984763
:103D60002D60EBE770B552000688BDF8105002F0E8
:103D70000602741C42EA011250FA86F603F00103AF
:103D80001A43A4B232717F2D05F07F038CBF6FF010
:103D90007F010021621C50FA84F40B43ED0923716A
:103DA00094B2F0D1048070BDF7B5044630B9374BFA
:103DB0003749384840F2252208F09CFBA37A022BB1
:103DC00018D1238801339BB2238003EB8303632B39
:103DD00008DC3149224641F2883003B0BDE8F040AA
:103DE00006F0C6BB40F20111204603B0BDE8F0402A
:103DF000FFF740BF032B3FD1A56905268DB1EB89A5
:103E0000B2B29A423AD3F61A2B68A3616B68F6B243
:103E10001BB16FF00201A86898472D60A569002EBC
:103E2000ECD16288002AD4D0A38801339BB2A3804E
:103E300002EB520203EB8303934222DD40F20111B5
:103E40002046FFF717FF00262388628803EB8301D3
:103E5000914218DB04F1EC0700213846FFF70CFE15
:103E600040B1002500952B462A460C213846FFF725
:103E700079FF2580002EACD103B0F0BD9E1AEE81F3
:103E8000CFE70126E0E701332380F3E773DA000888
:103E9000CCDA00080BD80008A93D00082DE9F34151
:103EA00000F1EC0405460F462046022116469846CE
:103EB000FFF7E2FD98B10223424600933946002302
:103EC0002046FFF74FFF31462046FFF78BFD204687
:103ED000E968FFF74BFE002002B0BDE8F0814FF02B
:103EE000FF30F9E72DE9F74F90F86CA04FEA1A166A
:103EF0001C46022E00F16C030546904603EB0109B7
:103F000014D1837A022B01D000240BE099F80140F0
:103F100044B90323837243690480002BF4D0224602
:103F200001699847204603B0BDE8F08F0D2EEBD015
:103F3000032E5ED1826E802ACAF3410A57D85B5C99
:103F400099F8017007EB0327BFB2BAF1000F07F130
:103F5000020614BF02230123B6B23344434502DDF7
:103F60004FF48074DEE7BAF1000F3DD019F8062057
:103F70004E4473783E1D03EB02230381B6B209F170
:103F8000020BA8EB06081BF80730019300230BF87F
:103F900007306B6E1FFA88F823B108EB040259460C
:103FA000E86D98479DF804300BF80730B8F1000F22
:103FB00001D1002CA8D1B4FA84F32F6EE86D5B090F
:103FC000424609EB0601B847002C9DD1BAF1000F1B
:103FD0009AD0BAF1010F23462A890CBF042105218A
:103FE0002846FFF75BFF9DE7A0F808A0C7E700267B
:103FF000DCE7595C99F8012052EA0122B0D0052E85
:1040000004D101230621FFF749FF7DE7062E02D1E7
:1040100000230721F7E70B2E9DBF4FF42963F340E0
:10402000DB43012313F001049AD111461830FFF746
:1040300073FD054600283FF467AF092E0FD1B8F194
:10404000020F8DD9436899F8022033B1032A2CBF9F
:104050006FF00C010021A86898472D6054E7436871
:10406000002BFAD02146F6E72DE9F04F0D4685B03A
:1040700091469A46044630B95A4B5B495B4840F238
:104080005F3208F037FAE368AB4206D0554B584927
:1040900056484FF4587208F02DFAB9F1000F09D1C3
:1040A0004FF480712046FFF7E5FDCA46504605B043
:1040B000BDE8F08FBAF1000F03D0484603F01EF8B8
:1040C000F4E72846B9F8081003F0E0FB04F16C03AC
:1040D000D34656465546D0460393B9F80870B845BE
:1040E0000ED30027484603F009F81FB13946204691
:1040F000FFF7C0FD6388002BD8D00023A380D5E74D
:10410000012EA26E02D91BF0800F31D096421BD235
:10411000A31993F86CB00136F6B2012EDDD9B21EA8
:104120000BF07F03C2EBC20293401BF0800F45EA05
:104130000305D2D1C5B92B462A4631462046FFF7A2
:10414000D1FEA5662E46C8E74146484603F0C7FAA9
:10415000A36E08F101075A1C2344BFB2A26683462E
:1041600083F86C00B846D6E7A36EF31A1D44B4E793
:10417000C6F18001921BB2FBF1F301FB132293B253
:104180009919A7EB0807BFB289B2BD420193C1F1EB
:10419000800398BFAFB29BB29F420398029328BF9F
:1041A0001F46014443463A46484603F03FFAA36E91
:1041B000B8443B44ED1BA3661FFA88F802D0029B6B
:1041C000BB428AD1019B3B441A4692B22B463146F0
:1041D0002046FFF787FE0746002883D1002D7FF495
:1041E0007CAFAEE773DA0008BBDC00080BD8000830
:1041F000DCDC00082DE9F04F85B08B469246029337
:104200009DF83890054630B94C4B4D494D4840F229
:104210000B4208F06FF9BBF1000F06D1474B4A493A
:10422000484840F20C4208F065F9AB7A5BB9434B61
:104230004649444840F20D4208F05CF96FF00A002C
:1042400005B0BDE8F08F5846FBF7CCFF4FF6FD7385
:10425000984209D9394B3E494FF48262394808F0F7
:1042600049F96FF00F00EBE783B20393029B841CC4
:104270001C44B4F5803F04DB304B364940F2134216
:10428000ECE7A4B2B9F1000F1ED0EE880136B6B249
:10429000002E04F1020408BF0126A4B2EE80119B97
:1042A000109A314605F11C00FFF7C4FB804640B16F
:1042B00005F1EC0721463846FFF7DEFB30B9C8F8B8
:1042C00000804FF0FF30BBE74E46E8E74A46032147
:1042D000384600949DF83C30FFF744FD039A594658
:1042E0003846FFF78CFBB9F1000F03D03146384652
:1042F000FFF778FBBAF1000F0AD1414605F118002B
:10430000FFF7DCFB3846E968FFF730FC002097E751
:10431000029B002BF1D05246A2EB0A0302999BB2FA
:104320008B42EAD2B5F8EC30591CA5F8EC1055FADE
:1043300083F312F8011B83F8F010EDE773DA00083D
:1043400012DB00080BD800082FDB00084BDB00084D
:104350006ADB00088EDB00082DE9F04F85B08B4644
:1043600091461F469DF83CA0044630B9484B494948
:10437000494840F2554208F0BDF8BBF1000F06D1A4
:10438000434B4649444840F2564208F0B3F8584679
:10439000FBF728FF4FF6FD7398420BD93C4B404981
:1043A00040F259423C4808F0A5F86FF00F0005B004
:1043B000BDE8F08F051DBAF1000F18BF013583B2BB
:1043C000B5F5803F039304DB314B364940F25D4243
:1043D000E8E7B9F1020FADB206D92D4B32492E48AC
:1043E0004FF48C6208F086F8A37A002B4CD0E68854
:1043F0000E9B0136B6B2002E08BF0126E6803A4673
:10440000314604F11C00FFF715FB804640B104F172
:10441000EC0729463846FFF72FFB20B9C8F8008083
:104420004FF0FF30C3E7BAF1000F14BF08210A2193
:104430000122002338460095FFF794FC31463846A8
:10444000FFF7D0FA039A59463846FFF7D8FABAF17F
:10445000000F0ED0B4F8EC30B9F1020F03F10102F5
:1044600054FA83F328BF4FF00209A4F8EC2083F834
:10447000F090414604F11800FFF720FB3846E16850
:10448000FFF774FB002092E76FF00A008FE700BF90
:1044900073DA0008DADB00080BD80008F9DB000843
:1044A00017DC00083DDC000863DC0008F8B50E46A8
:1044B00017461D46044630B9054B0649064840F2EA
:1044C0008F4208F017F827666666E565F8BD00BFFD
:1044D00073DA0008B2DB00080BD8000810B54FF4FF
:1044E000F87002F07BFB044620B14FF4F872002113
:1044F00007F0F8FF204610BD2DE9F04F87B01E46AB
:1045000004910592119F044630B97D4B7D497E4848
:1045100040F2BB4207F0EEFF049B33B9784B7B4976
:10452000794840F2BC4207F0E5FF37B9744B78494F
:10453000754840F2BD4207F0DDFF3B6833B9704B70
:104540007449714840F2BE4207F0D4FFA57A002DAD
:1045500040F0D2804FF4F8722946204607F0C2FF9F
:10456000109B2361BB89638004F11C03E36104F1A8
:104570002C03E3623869666104F13C03E36304F1F0
:104580004C03E364002843D0D7F81480B8F1000F3F
:104590003ED03D7E7B7EED0005F0180545F004051C
:1045A0000BB145F02005FBF71DFEFF2806460CD990
:1045B000534B594940F2D442534807F09BFF6FF0E8
:1045C0000506304607B0BDE8F08F20B94C4B534983
:1045D00040F2D542F0E75FFA80FA4046FBF702FE70
:1045E000FF2804D9464B4E494FF49B62E4E70E3650
:1045F00006445FFA80F9B6B23868FBF7F3FDB0F510
:10460000803F834608D33E4B464940F2E342D3E71E
:10461000A946AA460A26EFE702360644B6F5803FC9
:1046200004DB374B404940F2E642C5E7B3B204F140
:10463000EC08194640460393FFF71EFA10B94FF0F5
:10464000FF36BEE703F088FEE0600028F7D0214681
:1046500003F072F900223549E06803F0A1F806463C
:10466000002843D1324B059A0499E06803F094FE88
:10467000064600283AD1E0682E4903F08DF9012161
:10468000039BA1723246009340463346FFF76AFB14
:10469000042229494046FFF7B2F9B4F8EC3054FA45
:1046A00083F2042182F8F0109A1C0133A4F8EC2064
:1046B00054FA83F445F0020384F8F030B989404697
:1046C000FFF790F91FFA8BF239684046FFF797F928
:1046D0006B077FF576AF524639694046FFF78FF991
:1046E0004A4679694046FFF78AF96AE7E06803F0CD
:1046F0006BFD0023E36064E76FF0090661E700BF2C
:1047000073DA00088AD800080BD80008AED8000871
:10471000D3D80008FCD8000830D900086DD90008AB
:10472000ADD90008E8D9000824DA000840E3000801
:104730001D3C0008F53C000853DA000840BA80B27E
:10474000704700BA704713B5002310F00102ADF8AE
:1047500006301FD0994224DD431C00788DF80700F5
:1047600001390020012917DC02D11B788DF80630B1
:10477000BDF80630034498B200EB134398B200EB47
:10478000134022B103029BB2C0F30720184380B24A
:1047900002B010BD0346E4E733F8024B023920446F
:1047A000E0E71846E4E72DE9F0411C68069B1B682A
:1047B0000546180C10FA83F010FA84F000EB144050
:1047C00084B204EB104084B20F46164604EB10444A
:1047D0004FF00008D5B9B8F1000F04D023029BB206
:1047E000C4F307241C433846FFF7A8FF05463046AC
:1047F000FFF7A4FF28440444A0B200EB1444A0B285
:1048000000EB1440C04380B2BDE8F081698968685C
:10481000FFF799FF6B890444A0B2DB0700EB144457
:1048200008D52302C8F101089BB2C4F307245FFA3C
:1048300088F81C432D68CDE7FFF7B5BF08B5FFF733
:1048400082FFC04380B208BD70B5002506462C46E5
:1048500046B925B123029BB2C4F307241C43E043AD
:1048600080B270BD71897068FFF76DFF7389204455
:1048700084B2DB0704EB104407D52302C5F1010520
:104880009BB2C4F30724EDB21C433668E0E708B5D9
:1048900006F01AFA02F036F802F080FA02F0CBFACB
:1048A00005F09CFF02F07AFFBDE8084005F0E8BE85
:1048B000437A8B421FBF002341728372C3827047C9
:1048C00038B5838A0233442B04460D4606D90A4B79
:1048D0000A490B4840F2825207F00CFEA38A226973
:1048E000D118280A81F8F000991C013312FA83F3D9
:1048F000A18283F8F05038BD45DF00087ADF000858
:104900000BD80008838A70B5154602321344442B35
:1049100004460E4606D90A4B0A490B484FF4AE62CC
:1049200007F0E8FDA38A2269D11881F8F060991C8C
:10493000013312FA83F3A18283F8F05070BD00BFF7
:1049400045DF000866DE00080BD8000838B5838A0A
:10495000432B04460D4606D9074B0849084840F248
:104960007B5207F0C7FDA28A23691344511CA18220
:1049700083F8F05038BD00BF45DF0008AEDE000808
:104980000BD8000838B5838A0433442B05460C46FF
:1049900006D9104B1049114840F28A5207F0AAFD7F
:1049A000AB8A2A69D118200E81F8F000591C12FA3E
:1049B00081F1200C81F8F000991C12FA81F1200A93
:1049C00081F8F000191D033312FA83F3A98283F8EA
:1049D000F04038BD45DF000805DF00080BD80008AF
:1049E0002DE9F0410C461646804650B9624B6349AA
:1049F000634840F21D7207F07DFD6FF00F00BDE8C7
:104A0000F08151B95C4B5F495D4840F21E7207F07E
:104A100071FD6FF00500BDE8F081CB6833B1564BF6
:104A20005949574840F21F7207F064FD236933B1BA
:104A3000514B564952484FF4E46207F05BFD0022A7
:104A40004FF49A71104602F0BBFBE060002800F0C2
:104A50008F804389B3F59A7F06D2474B4C4948482B
:104A60004FF4E56207F046FD032E02D1637A032B73
:104A700007D1A37A474D13B907F054FD28602B687E
:104A80002360E3685F68276101233B707B7000252A
:104A900098F83230BB70FD702068FFF752FE236932
:104AA0007860042E1D725D729D72DD721D735D73E0
:104AB0009D73DD7308D0F21F012A05D9032E06D19C
:104AC000627A043A012A02D8D8F80420DA60002277
:104AD0001A745A749A74DA741A755A759A75DA7562
:104AE0001A765A769A76DA7698F8325003F11C00E4
:104AF00091B28D423AD9052938D808EB020191F8D4
:104B0000331000F8011B0132102AF1D103F12C02FD
:104B100003F16C01002002F8010B8A42FBD103F182
:104B2000EC00002102F8011B8242FBD16FF07D00F6
:104B3000632283F8ED00532083F8EC2083F8EF2004
:104B400083F8EE000022A182F03303F8012B01323A
:104B5000442AFAD1012220463521FFF7D3FE204610
:104B60003146FFF7F3FE0020BDE8F0810021C8E7E1
:104B70004FF0FF30BDE8F08145DF000833DD00086D
:104B80000BD8000852DD000870DD000895DD000834
:104B9000BCDD0008F0F1002038B5446A0546082164
:104BA0002046FFF785FE002204F12801284600F088
:104BB000F1FEA37AFF2B1CBF0133A3720123E38212
:104BC00038BD000037B5054640B93A4B3A4940F286
:104BD000FE323A4807F08EFC03B030BD446A24B977
:104BE000344B37494FF48062F3E700232384636B2F
:104BF0005A1C0BD03C221E33B3FBF2F34FF6FF726C
:104C0000934228BF1346002B41D06384A36B581CEA
:104C10000DD03C221E33B3FBF2F34FF6FF729342EA
:104C200028BF1346002B34D02383238BA383E36B4D
:104C3000591C0CD03C221E33B3FBF2F34FF6FF722B
:104C4000934228BF134633B36383638BE383638B41
:104C5000228B9A4202D30BB100232383E37AE3B180
:104C6000E36A0093236B01932BB9A36A009A134064
:104C700043F08073019320460A21FFF719FE01AB30
:104C80006A4604F12801284602F0F8F8A4E7012357
:104C9000BBE70123C8E70123D6E794F828301A06BA
:104CA00001D4FF23DDE7BF2B8CBF6FF07F434FF6AE
:104CB000FF73D6E745DF000802DD00080BD80008C7
:104CC0001BDD000810B5044640B9174B17491848BA
:104CD00040F28272BDE8104007F00CBC036933B9A2
:104CE000114B1449124840F2837207F003FCA38A67
:104CF000432B06D90C4B10490D4840F2847207F043
:104D0000F9FBA38A2269591C1344A182FF2183F86D
:104D1000F0100021A38A432B00D910BD581C134466
:104D2000A08283F8F010F5E745DF0008BBDF00083C
:104D30000BD80008DDDF000809E0000810B50446C4
:104D400040B9114B1149124840F26D72BDE8104054
:104D500007F0D0BBC36833B90B4B0E490C4840F287
:104D60006E7207F0C7FB236933B9074B0A4908483D
:104D700040F26F7207F0BEFBE06808B102F0BEF9C6
:104D80000023E360236110BD45DF0008FCDD00085F
:104D90000BD800081ADE00083FDE000873B5446A2D
:104DA00000230646A36206212046FFF781FD01226B
:104DB00021463046FFF714FE054678BB0222392112
:104DC0002046FFF79FFD318E2046FFF779FD032235
:104DD00037212046FFF796FD01212046FFF7B6FD5B
:104DE00003212046FFF7B2FD1C212046FFF7AEFD50
:104DF0002046FFF767FFA18AE068F03189B202F030
:104E0000BBFA124B1248019300964323114AE16802
:104E1000006805F0E7FD2046FFF790FFA37AFF2B1F
:104E20001CBF0133A372A27A052A9ABF4FF47A738A
:104E300093404EF660234FF4FA72284603F2F313C0
:104E400093FBF2F3E38202B070BD00BF40E30008C1
:104E5000ECF1002044E3000873B5446A06460321E0
:104E60002046FFF725FD032221463046FFF7B8FD17
:104E7000054600283AD1022239212046FFF742FD9B
:104E80004FF410712046FFF71BFD0422322120460B
:104E9000FFF738FDA06AFFF754FC01462046FFF7F4
:104EA00071FD032237212046FFF72CFD012120460A
:104EB000FFF74CFD03212046FFF748FD1C2120464B
:104EC000FFF744FD2046FFF7FDFEA18AE068F031C0
:104ED00089B202F051FA134800964323124AE1685E
:104EE000006805F0F7FD2046FFF728FFA37AFF2BA7
:104EF0001CBF0133A372A37A092B9FBFC3EB4312DC
:104F000003EB8203DB009BB288BF42F210734FF4C5
:104F1000FA72284603F2F31393FBF2F3E38202B032
:104F200070BD00BFECF1002044E30008F8B507466F
:104F30000D4621B30846FBF755F90446F8B1BE8A81
:104F4000C6F14106B04206D9104B1149114840F252
:104F50009D5207F0CFFAB44228BF3446FF2C06D941
:104F60000A4B0B490B4840F29F5207F0C3FAE2B2DA
:104F70000C213846FFF7C6FC2C44A54200D1F8BDF1
:104F800015F8011B3846FFF7E1FCF6E745DF00089E
:104F9000E9DE00080BD8000873B5446A0546012114
:104FA0002046FFF785FC032221462846FFF718FD1F
:104FB000064600284BD1022239212046FFF7A2FCE9
:104FC000298E2046FFF77CFC042232212046FFF781
:104FD00099FCA06AFFF7B5FB01462046FFF7D2FC1B
:104FE000042236212046FFF78DFC606AFFF7A9FBFB
:104FF00001462046FFF7C6FC032237212046FFF773
:1050000081FC01212046FFF7A1FC03212046FFF788
:105010009DFC1C212046FFF799FCE96A2046FFF71A
:1050200085FF2046FFF74EFEA18AE068F03189B285
:1050300002F0A2F9114B1248019300954323114A43
:10504000E168006805F0CEFC2046FFF777FEA37A02
:10505000FF2B1CBF0133A372A27A052A9ABF4FF41B
:105060007A7393404EF660234FF4FA72304603F29F
:10507000F31393FBF2F3E38202B070BD40E3000848
:10508000ECF1002044E30008436A93B15A7A0A2AFB
:105090000BD8DFE802F00E0A0A0606060A0A0A0A18
:1050A000060000229A72FFF7D7BE00229A72FFF71D
:1050B00075BE704737B5054648B9244B2449254885
:1050C00040F27B3203B0BDE8304007F013BA446AC7
:1050D000002C39D0637A082B36D10A68A36A9A4229
:1050E00032D10C212046FFF7E3FB0422214628465B
:1050F000FFF776FC08BB042232212046FFF702FCB2
:10510000A06AFFF71EFB01462046FFF73BFC204646
:10511000FFF7D8FDA18AE068F03189B202F02CF9DE
:105120000D4B0E480193009543230D4AE16800683A
:1051300005F058FC2046FFF701FEA37AFF2B1CBFA9
:105140000133A3721423E38203B030BD45DF0008AE
:105150000DDD00080BD8000840E30008ECF100204A
:1051600044E3000873B5446A064605212046FFF76C
:105170009FFB032221463046FFF732FC054690BBD9
:10518000022239212046FFF7BDFB318E2046FFF772
:1051900097FB032237212046FFF7B4FB012120466D
:1051A000FFF7D4FB03212046FFF7D0FB1C2120464C
:1051B000FFF7CCFBF16A2046FFF7B8FE2046FFF769
:1051C00081FDA18AE068F03189B202F0D5F8134878
:1051D0000096432304F12402E168006805F07AFC9C
:1051E0002046FFF7ABFDA37AFF2B1CBF0133A37250
:1051F000A37A092B9FBFC3EB431203EB82031B016E
:105200009BB288BF44F620634FF4FA72284603F23B
:10521000F31393FBF2F3E38202B070BDECF10020D4
:1052200058B1406A48B1407A0A2805D004380128AC
:105230008CBF00200120704701207047F0B5446A00
:1052400085B00646002C47D0636A0393FFF7E8FF5A
:10525000002105462046FFF72BFB00236362A36273
:10526000E3622363E363A363636363842384E3836D
:10527000A38375B3072221463046FFF7B1FB0546ED
:1052800008BB04AF042236212046FFF73BFB57F84A
:10529000040DFFF756FA01462046FFF773FB204640
:1052A000FFF710FDA18AE068F03189B202F064F8DE
:1052B0000B48009643233A46E168006805F00AFC73
:1052C0002046FFF73BFD074B30461A46194601F0D2
:1052D000D5FD284605B0F0BD6FF00F05F9E700BF1A
:1052E000ECF1002040E30008534B2DE9F7431D6823
:1052F000524FDFF84C8140F2192615B903B0BDE8D2
:10530000F0836C6A7CB1637A6BB1618C69B1228C79
:10531000013292B29142228407D12846FFF78EFFD4
:105320002846FFF73BFD2D68E7E7B4F81E90B9F17A
:10533000000F68D009F1FF32B9F1010FE28362D1A9
:10534000013BDBB2092BEED826FA03F3DB07EAD5E3
:1053500004212046FFF7ACFA032221462846FFF736
:105360003FFB80BB022239212046FFF7CBFA298E72
:105370002046FFF7A5FA032237212046FFF7C2FA9D
:1053800049462046FFF7E2FA03212046FFF7DEFAFE
:105390001C212046FFF7DAFAE96A2046FFF7C6FD2E
:1053A0002046FFF78FFCA18AE068F03189B201F056
:1053B000E3FF009543234246E168386805F08AFB25
:1053C0002046FFF7BBFCA37AFF2B1CBF0133A3725F
:1053D000A37A092B9FBFC3EB431203EB8203DB00CD
:1053E0009BB288BF42F210734FF4FA7203F2F313C8
:1053F00093FBF2F3228CE382638C9B1A012B92DDE8
:105400005B10E3838FE7A28B002A8CD0511E012A08
:10541000A18388D103F0FB02012A01D00A2B82D19B
:105420002846FFF79FFE638B228C9B1A012BC4BF7B
:105430005B10A38377E700BF4C790120ECF10020DB
:1054400044E3000838B51D4B1C68002504B938BD7D
:10545000636A23B1DA8A012A03D9013ADA8224681D
:10546000F4E7FCD15A7ADD820C2A01D0062A03D156
:105470002046FFF793FCF2E7012A09D19B7A052B1E
:10548000204602D8FFF788FDE9E7FFF7D7FEEFE7F0
:10549000082A09D19B7A012B204602D8FFF77CFB12
:1054A000DDE7FFF78FFBDAE7032AD8D19B7A012BE0
:1054B0002046DED8FFF7D0FCD1E700BF4C790120B1
:1054C00070B518260B4D46430446A85918B101F093
:1054D00015FE0023AB51182303FB045300221A7559
:1054E0005A829A605A60044A10689288D8601A8278
:1054F00070BD00BFF4F10020B6F800082DE9F347B5
:105500000B9D894692469846074630B92C4B2D494B
:105510002D484FF48B6206F0EDFF00221C21022083
:1055200001F04EFE0646002847D043891B2B06D8C3
:10553000234B2649244840F2644206F0DBFFBDF8C5
:1055400034007468FFF7FAF8E08097F83230062BE1
:1055500006D01B4B1E491C4840F26B4206F0CAFFA6
:10556000D8F80030A360B8F80430A3812B68C4F8E1
:105570001230AB88E3820A9B1B68C4F80E300C9B88
:105580001B68A361012363700823A37006232371A2
:1055900004230025637140F606032570E5704A4632
:1055A000009331465346384605F012FB304601F071
:1055B000A5FD284602B0BDE8F0874FF0FF30F9E7BF
:1055C00061E100080DDD00080BD8000898E1000833
:1055D000C9E100082DE9F74F3E4B01910A2205462B
:1055E00000209446144681468046834696461E46D1
:1055F000BEF10A0F1F7D12D19FB94FFA80FE013014
:105600000A2803F11803F3D1019B990704D4BEF1D2
:105610000A0F1CD1DB0735D44FF0FF3009E0002F13
:10562000EDD0002D4AD029688A4659688A4545D16F
:1056300040B203B0BDE8F08FC245E0D34FFA80FC22
:10564000D046DCE7CA4524BF44B2D146D7E75FFA6B
:105650008EF7182303FB07631B7D33B11E4B1F49D5
:105660001F4840F2871206F045FF25B1182303FBBF
:1056700007632A685A60182303FB076600237382B6
:1056800078B2D6E70A2C0FD01823E7B25C4333591F
:1056900033B1114B1349124840F26F1206F02AFF42
:1056A0003846FFF70DFFD4E7BCF10A0F02D05FFACE
:1056B0008CF7F5E70A2AAFD0D7B2F1E7012FB3F89C
:1056C00012A0BFD11F68002FB6D0DA4597D342B2DF
:1056D000D34694E7F4F1002061E1000883E000087C
:1056E0000BD800086CE0000870B5084D0646002491
:1056F0002B7D2BB1AB68B34202D12046FFF7E0FE11
:1057000001340A2C05F11805F2D170BDF4F1002026
:105710002DE9F047804686B00C4649B94A4B4B49C3
:105720004B484FF4227206F0E5FE06B0BDE8F08764
:1057300045682B88B3F5807F08D12B79062B05D1DE
:105740006B79042B02D16B88082B03D0404601F003
:10575000D5FCEAE74E68D5F80E300593AB6916B173
:105760009B1B5E425E4194F83230002E14BF4FF016
:1057700001094FF00209062B05F1080706D0324B4C
:105780003449334840F2AB1206F0B4FE05980028C5
:105790003CD0214600F0F3FC8246B8BB059B03F0E9
:1057A000F003E02B32D0494605A8FFF713FF00288D
:1057B0002CDB294B182202FB00F103EB010E4FF00A
:1057C000020C8EF814C04FF00C0CCEF8084012FBFF
:1057D00000C23868985003EB020CBA88ACF8042079
:1057E00053F80190AEF812A0B9F1000F0ED043F8B3
:1057F00001A04FF40063009304F133023B46494695
:10580000204605F0E5F9484601F078FCEB88B3F551
:10581000807F07D0B3F5007F98D105A92046FFF718
:1058200049FC93E7002E91D00222039205AA04F1CD
:1058300033030292221D009201973A4619462046F0
:10584000FFF75CFE82E700BF61E100080DDD0008A4
:105850000BD80008CBE00008F4F100201FB5024689
:1058600000F13303029101240549019104320092B1
:105870000394044A1946FFF741FE04B010BD00BF6F
:10588000B6F800084AF80008F8B5134C00250226BF
:105890000427227C6AB1E38901339BB2B3F5967F7A
:1058A000E38103D2012A0AD1042B0CD92846FFF741
:1058B00007FE01350A2D04F11804EAD1F8BD032AC8
:1058C00006D12774F5E721466068FFF7C7FFF0E7C8
:1058D000042AEED12674ECE7F8F100202DE9F0431C
:1058E000274D1446182202FB045285B0127D012A6E
:1058F0000646884606D8234B2349244840F2ED2229
:1059000006F0F8FD182101FB045906F1330799F858
:105910001430022B0DD1B9F81230B3F58E7F17D9A0
:10592000494604313046FFF799FF10B9032389F83F
:105930001430182303FB04534FF4006200920C331D
:105940003A464146304605F043F905B0BDE8F083DC
:10595000B3F5877FEDD304EB4403DB0003F10C02C6
:1059600004332B4402930A4B01930121331D03910D
:1059700000932A443B4639463046FFF7BFFDD4E743
:10598000F4F1002061E10008EFE000080BD8000806
:10599000B6F800082DE9F347894680460146D9F854
:1059A0000000164600F0EBFB044600285ED1D9F853
:1059B000003003F0F002E02A58D0002B56D001212D
:1059C0004846FFF707FE051E53DB404F182303FB35
:1059D00005731A7D1AB901241C75C3F808801823B1
:1059E00003FB05731B7D33B9394B3A493A4840F202
:1059F000C93206F07FFD0CB9002E3CD14946404625
:105A0000FFF72CFF002E38D102B0BDE8F087FBD1A4
:105A1000DFF8BC80DFF8C890DFF8BCA034469CB942
:105A2000304601F021FD002E4CD0B046182303FB78
:105A300005F21C46B85808B101F060FB04FB05F301
:105A4000002047F80380DFE7628923899A4208D162
:105A5000236833B143464FF47B724946504606F003
:105A600049FD237B012B1ED12468D8E76FF00F007E
:105A7000CAE72846C8E74FF0FF30182303FB05723A
:105A8000127D012AC3D9154A15700C2213FB052378
:105A90004FF4006200923B4408F133023146404625
:105AA00005F096F8B0E700222189022001F088FB7A
:105AB000804638B1314601F02FFD0028B6D040466F
:105AC00001F01CFB4FF0FF309EE700BFF4F1002017
:105AD00061E100081FE100080BD80008E4F2002093
